{
  "address": "0x8ea26A2BC101bd2Fe386b495BDE3CfE76164ed1E",
  "abi": [
    {
      "name": "Deposit",
      "inputs": [
        {
          "name": "provider",
          "type": "address",
          "indexed": true
        },
        {
          "name": "value",
          "type": "uint256",
          "indexed": false
        }
      ],
      "anonymous": false,
      "type": "event"
    },
    {
      "name": "Withdraw",
      "inputs": [
        {
          "name": "provider",
          "type": "address",
          "indexed": true
        },
        {
          "name": "value",
          "type": "uint256",
          "indexed": false
        }
      ],
      "anonymous": false,
      "type": "event"
    },
    {
      "name": "UpdateLiquidityLimit",
      "inputs": [
        {
          "name": "user",
          "type": "address",
          "indexed": false
        },
        {
          "name": "original_balance",
          "type": "uint256",
          "indexed": false
        },
        {
          "name": "original_supply",
          "type": "uint256",
          "indexed": false
        },
        {
          "name": "working_balance",
          "type": "uint256",
          "indexed": false
        },
        {
          "name": "working_supply",
          "type": "uint256",
          "indexed": false
        }
      ],
      "anonymous": false,
      "type": "event"
    },
    {
      "name": "CommitOwnership",
      "inputs": [
        {
          "name": "admin",
          "type": "address",
          "indexed": false
        }
      ],
      "anonymous": false,
      "type": "event"
    },
    {
      "name": "ApplyOwnership",
      "inputs": [
        {
          "name": "admin",
          "type": "address",
          "indexed": false
        }
      ],
      "anonymous": false,
      "type": "event"
    },
    {
      "name": "Transfer",
      "inputs": [
        {
          "name": "_from",
          "type": "address",
          "indexed": true
        },
        {
          "name": "_to",
          "type": "address",
          "indexed": true
        },
        {
          "name": "_value",
          "type": "uint256",
          "indexed": false
        }
      ],
      "anonymous": false,
      "type": "event"
    },
    {
      "name": "Approval",
      "inputs": [
        {
          "name": "_owner",
          "type": "address",
          "indexed": true
        },
        {
          "name": "_spender",
          "type": "address",
          "indexed": true
        },
        {
          "name": "_value",
          "type": "uint256",
          "indexed": false
        }
      ],
      "anonymous": false,
      "type": "event"
    },
    {
      "name": "RewardDataUpdate",
      "inputs": [
        {
          "name": "_token",
          "type": "address",
          "indexed": true
        },
        {
          "name": "_amount",
          "type": "uint256",
          "indexed": false
        }
      ],
      "anonymous": false,
      "type": "event"
    },
    {
      "stateMutability": "nonpayable",
      "type": "constructor",
      "inputs": [],
      "outputs": []
    },
    {
      "stateMutability": "nonpayable",
      "type": "function",
      "name": "initialize",
      "inputs": [
        {
          "name": "_staking_token",
          "type": "address"
        },
        {
          "name": "_admin",
          "type": "address"
        },
        {
          "name": "_ANGLE",
          "type": "address"
        },
        {
          "name": "_voting_escrow",
          "type": "address"
        },
        {
          "name": "_veBoost_proxy",
          "type": "address"
        },
        {
          "name": "_distributor",
          "type": "address"
        }
      ],
      "outputs": [],
      "gas": 548461
    },
    {
      "stateMutability": "view",
      "type": "function",
      "name": "decimals",
      "inputs": [],
      "outputs": [
        {
          "name": "",
          "type": "uint256"
        }
      ],
      "gas": 2418
    },
    {
      "stateMutability": "nonpayable",
      "type": "function",
      "name": "user_checkpoint",
      "inputs": [
        {
          "name": "addr",
          "type": "address"
        }
      ],
      "outputs": [
        {
          "name": "",
          "type": "bool"
        }
      ],
      "gas": 3493693
    },
    {
      "stateMutability": "view",
      "type": "function",
      "name": "claimed_reward",
      "inputs": [
        {
          "name": "_addr",
          "type": "address"
        },
        {
          "name": "_token",
          "type": "address"
        }
      ],
      "outputs": [
        {
          "name": "",
          "type": "uint256"
        }
      ],
      "gas": 2976
    },
    {
      "stateMutability": "view",
      "type": "function",
      "name": "claimable_reward",
      "inputs": [
        {
          "name": "_user",
          "type": "address"
        },
        {
          "name": "_reward_token",
          "type": "address"
        }
      ],
      "outputs": [
        {
          "name": "",
          "type": "uint256"
        }
      ],
      "gas": 26704
    },
    {
      "stateMutability": "nonpayable",
      "type": "function",
      "name": "set_rewards_receiver",
      "inputs": [
        {
          "name": "_receiver",
          "type": "address"
        }
      ],
      "outputs": [],
      "gas": 35613
    },
    {
      "stateMutability": "nonpayable",
      "type": "function",
      "name": "claim_rewards",
      "inputs": [],
      "outputs": []
    },
    {
      "stateMutability": "nonpayable",
      "type": "function",
      "name": "claim_rewards",
      "inputs": [
        {
          "name": "_addr",
          "type": "address"
        }
      ],
      "outputs": []
    },
    {
      "stateMutability": "nonpayable",
      "type": "function",
      "name": "claim_rewards",
      "inputs": [
        {
          "name": "_addr",
          "type": "address"
        },
        {
          "name": "_receiver",
          "type": "address"
        }
      ],
      "outputs": []
    },
    {
      "stateMutability": "nonpayable",
      "type": "function",
      "name": "kick",
      "inputs": [
        {
          "name": "addr",
          "type": "address"
        }
      ],
      "outputs": [],
      "gas": 3514457
    },
    {
      "stateMutability": "nonpayable",
      "type": "function",
      "name": "deposit",
      "inputs": [
        {
          "name": "_value",
          "type": "uint256"
        }
      ],
      "outputs": []
    },
    {
      "stateMutability": "nonpayable",
      "type": "function",
      "name": "deposit",
      "inputs": [
        {
          "name": "_value",
          "type": "uint256"
        },
        {
          "name": "_addr",
          "type": "address"
        }
      ],
      "outputs": []
    },
    {
      "stateMutability": "nonpayable",
      "type": "function",
      "name": "deposit",
      "inputs": [
        {
          "name": "_value",
          "type": "uint256"
        },
        {
          "name": "_addr",
          "type": "address"
        },
        {
          "name": "_claim_rewards",
          "type": "bool"
        }
      ],
      "outputs": []
    },
    {
      "stateMutability": "nonpayable",
      "type": "function",
      "name": "withdraw",
      "inputs": [
        {
          "name": "_value",
          "type": "uint256"
        }
      ],
      "outputs": []
    },
    {
      "stateMutability": "nonpayable",
      "type": "function",
      "name": "withdraw",
      "inputs": [
        {
          "name": "_value",
          "type": "uint256"
        },
        {
          "name": "_claim_rewards",
          "type": "bool"
        }
      ],
      "outputs": []
    },
    {
      "stateMutability": "nonpayable",
      "type": "function",
      "name": "transfer",
      "inputs": [
        {
          "name": "_to",
          "type": "address"
        },
        {
          "name": "_value",
          "type": "uint256"
        }
      ],
      "outputs": [
        {
          "name": "",
          "type": "bool"
        }
      ],
      "gas": 14116306
    },
    {
      "stateMutability": "nonpayable",
      "type": "function",
      "name": "transferFrom",
      "inputs": [
        {
          "name": "_from",
          "type": "address"
        },
        {
          "name": "_to",
          "type": "address"
        },
        {
          "name": "_value",
          "type": "uint256"
        }
      ],
      "outputs": [
        {
          "name": "",
          "type": "bool"
        }
      ],
      "gas": 14154256
    },
    {
      "stateMutability": "nonpayable",
      "type": "function",
      "name": "approve",
      "inputs": [
        {
          "name": "_spender",
          "type": "address"
        },
        {
          "name": "_value",
          "type": "uint256"
        }
      ],
      "outputs": [
        {
          "name": "",
          "type": "bool"
        }
      ],
      "gas": 39391
    },
    {
      "stateMutability": "nonpayable",
      "type": "function",
      "name": "increaseAllowance",
      "inputs": [
        {
          "name": "_spender",
          "type": "address"
        },
        {
          "name": "_added_value",
          "type": "uint256"
        }
      ],
      "outputs": [
        {
          "name": "",
          "type": "bool"
        }
      ],
      "gas": 41935
    },
    {
      "stateMutability": "nonpayable",
      "type": "function",
      "name": "decreaseAllowance",
      "inputs": [
        {
          "name": "_spender",
          "type": "address"
        },
        {
          "name": "_subtracted_value",
          "type": "uint256"
        }
      ],
      "outputs": [
        {
          "name": "",
          "type": "bool"
        }
      ],
      "gas": 41959
    },
    {
      "stateMutability": "nonpayable",
      "type": "function",
      "name": "add_reward",
      "inputs": [
        {
          "name": "_reward_token",
          "type": "address"
        },
        {
          "name": "_distributor",
          "type": "address"
        }
      ],
      "outputs": [],
      "gas": 112973
    },
    {
      "stateMutability": "nonpayable",
      "type": "function",
      "name": "set_reward_distributor",
      "inputs": [
        {
          "name": "_reward_token",
          "type": "address"
        },
        {
          "name": "_distributor",
          "type": "address"
        }
      ],
      "outputs": [],
      "gas": 40723
    },
    {
      "stateMutability": "nonpayable",
      "type": "function",
      "name": "deposit_reward_token",
      "inputs": [
        {
          "name": "_reward_token",
          "type": "address"
        },
        {
          "name": "_amount",
          "type": "uint256"
        }
      ],
      "outputs": [],
      "gas": 3585370
    },
    {
      "stateMutability": "nonpayable",
      "type": "function",
      "name": "commit_transfer_ownership",
      "inputs": [
        {
          "name": "addr",
          "type": "address"
        }
      ],
      "outputs": [],
      "gas": 40082
    },
    {
      "stateMutability": "nonpayable",
      "type": "function",
      "name": "accept_transfer_ownership",
      "inputs": [],
      "outputs": [],
      "gas": 39930
    },
    {
      "stateMutability": "nonpayable",
      "type": "function",
      "name": "recover_erc20",
      "inputs": [
        {
          "name": "token",
          "type": "address"
        },
        {
          "name": "addr",
          "type": "address"
        },
        {
          "name": "amount",
          "type": "uint256"
        }
      ],
      "outputs": [],
      "gas": 14041694
    },
    {
      "stateMutability": "nonpayable",
      "type": "function",
      "name": "set_staking_token_and_scaling_factor",
      "inputs": [
        {
          "name": "token",
          "type": "address"
        },
        {
          "name": "_value",
          "type": "uint256"
        }
      ],
      "outputs": [],
      "gas": 110577
    },
    {
      "stateMutability": "view",
      "type": "function",
      "name": "ANGLE",
      "inputs": [],
      "outputs": [
        {
          "name": "",
          "type": "address"
        }
      ],
      "gas": 3048
    },
    {
      "stateMutability": "view",
      "type": "function",
      "name": "voting_escrow",
      "inputs": [],
      "outputs": [
        {
          "name": "",
          "type": "address"
        }
      ],
      "gas": 3078
    },
    {
      "stateMutability": "view",
      "type": "function",
      "name": "veBoost_proxy",
      "inputs": [],
      "outputs": [
        {
          "name": "",
          "type": "address"
        }
      ],
      "gas": 3108
    },
    {
      "stateMutability": "view",
      "type": "function",
      "name": "staking_token",
      "inputs": [],
      "outputs": [
        {
          "name": "",
          "type": "address"
        }
      ],
      "gas": 3138
    },
    {
      "stateMutability": "view",
      "type": "function",
      "name": "decimal_staking_token",
      "inputs": [],
      "outputs": [
        {
          "name": "",
          "type": "uint256"
        }
      ],
      "gas": 3168
    },
    {
      "stateMutability": "view",
      "type": "function",
      "name": "balanceOf",
      "inputs": [
        {
          "name": "arg0",
          "type": "address"
        }
      ],
      "outputs": [
        {
          "name": "",
          "type": "uint256"
        }
      ],
      "gas": 3413
    },
    {
      "stateMutability": "view",
      "type": "function",
      "name": "totalSupply",
      "inputs": [],
      "outputs": [
        {
          "name": "",
          "type": "uint256"
        }
      ],
      "gas": 3228
    },
    {
      "stateMutability": "view",
      "type": "function",
      "name": "allowance",
      "inputs": [
        {
          "name": "arg0",
          "type": "address"
        },
        {
          "name": "arg1",
          "type": "address"
        }
      ],
      "outputs": [
        {
          "name": "",
          "type": "uint256"
        }
      ],
      "gas": 3688
    },
    {
      "stateMutability": "view",
      "type": "function",
      "name": "name",
      "inputs": [],
      "outputs": [
        {
          "name": "",
          "type": "string"
        }
      ],
      "gas": 13518
    },
    {
      "stateMutability": "view",
      "type": "function",
      "name": "symbol",
      "inputs": [],
      "outputs": [
        {
          "name": "",
          "type": "string"
        }
      ],
      "gas": 11271
    },
    {
      "stateMutability": "view",
      "type": "function",
      "name": "working_balances",
      "inputs": [
        {
          "name": "arg0",
          "type": "address"
        }
      ],
      "outputs": [
        {
          "name": "",
          "type": "uint256"
        }
      ],
      "gas": 3563
    },
    {
      "stateMutability": "view",
      "type": "function",
      "name": "working_supply",
      "inputs": [],
      "outputs": [
        {
          "name": "",
          "type": "uint256"
        }
      ],
      "gas": 3378
    },
    {
      "stateMutability": "view",
      "type": "function",
      "name": "integrate_checkpoint_of",
      "inputs": [
        {
          "name": "arg0",
          "type": "address"
        }
      ],
      "outputs": [
        {
          "name": "",
          "type": "uint256"
        }
      ],
      "gas": 3623
    },
    {
      "stateMutability": "view",
      "type": "function",
      "name": "reward_count",
      "inputs": [],
      "outputs": [
        {
          "name": "",
          "type": "uint256"
        }
      ],
      "gas": 3438
    },
    {
      "stateMutability": "view",
      "type": "function",
      "name": "reward_tokens",
      "inputs": [
        {
          "name": "arg0",
          "type": "uint256"
        }
      ],
      "outputs": [
        {
          "name": "",
          "type": "address"
        }
      ],
      "gas": 3513
    },
    {
      "stateMutability": "view",
      "type": "function",
      "name": "reward_data",
      "inputs": [
        {
          "name": "arg0",
          "type": "address"
        }
      ],
      "outputs": [
        {
          "name": "token",
          "type": "address"
        },
        {
          "name": "distributor",
          "type": "address"
        },
        {
          "name": "period_finish",
          "type": "uint256"
        },
        {
          "name": "rate",
          "type": "uint256"
        },
        {
          "name": "last_update",
          "type": "uint256"
        },
        {
          "name": "integral",
          "type": "uint256"
        }
      ],
      "gas": 14943
    },
    {
      "stateMutability": "view",
      "type": "function",
      "name": "rewards_receiver",
      "inputs": [
        {
          "name": "arg0",
          "type": "address"
        }
      ],
      "outputs": [
        {
          "name": "",
          "type": "address"
        }
      ],
      "gas": 3743
    },
    {
      "stateMutability": "view",
      "type": "function",
      "name": "reward_integral_for",
      "inputs": [
        {
          "name": "arg0",
          "type": "address"
        },
        {
          "name": "arg1",
          "type": "address"
        }
      ],
      "outputs": [
        {
          "name": "",
          "type": "uint256"
        }
      ],
      "gas": 3988
    },
    {
      "stateMutability": "view",
      "type": "function",
      "name": "admin",
      "inputs": [],
      "outputs": [
        {
          "name": "",
          "type": "address"
        }
      ],
      "gas": 3588
    },
    {
      "stateMutability": "view",
      "type": "function",
      "name": "future_admin",
      "inputs": [],
      "outputs": [
        {
          "name": "",
          "type": "address"
        }
      ],
      "gas": 3618
    },
    {
      "stateMutability": "view",
      "type": "function",
      "name": "initialized",
      "inputs": [],
      "outputs": [
        {
          "name": "",
          "type": "bool"
        }
      ],
      "gas": 3648
    },
    {
      "stateMutability": "view",
      "type": "function",
      "name": "scaling_factor",
      "inputs": [],
      "outputs": [
        {
          "name": "",
          "type": "uint256"
        }
      ],
      "gas": 3678
    }
  ],
  "transactionHash": "0xe966e5b5c57c4f45cc2996c58f9cff4d7f9a6e15cc323dc1b96bee95ed09d3ac",
  "args": [],
  "bytecode": "0x602754612a28576001602755612a1056600436101561000d57611d6d565b600035601c52600051346129fb5763cc2a9a5b81141561034e5760043560a01c6129fb5760243560a01c6129fb5760443560a01c6129fb5760643560a01c6129fb5760843560a01c6129fb5760a43560a01c6129fb576027546129fb576001602755600060243518156129fb57600060443518156129fb57600060643518156129fb57600060843518156129fb57600060a43518156129fb5760243560255560043560095560206101a0600463313ce5676101405261015c6004355afa156129fb57601f3d11156129fb576000506101a051600a55606061020060046395d89b416101a0526101bc6004355afa156129fb57603f3d11156129fb57601b61020061020051015110156129fb576000506102208051602001806101408284600060045af1156129fb575050600060066101a0527f416e676c652000000000000000000000000000000000000000000000000000006101c0526101a060068060208461026001018260208501600060045af1505080518201915050610140601a8060208461026001018260208501600060045af15050805182019150506006610200527f20476175676500000000000000000000000000000000000000000000000000006102205261020060068060208461026001018260208501600060045af15050805182019150508061026052610260905080600e602082510161012060006003818352015b8261012051602002111561022657610248565b61012051602002850151610120518501555b8151600101808352811415610213575b5050505050506000610140601a8060208461020001018260208501600060045af150508051820191505060066101a0527f2d676175676500000000000000000000000000000000000000000000000000006101c0526101a060068060208461020001018260208501600060045af150508051820191505080610200526102009050806012602082510161012060006002818352015b826101205160200211156102f057610312565b61012051602002850151610120518501555b81516001018083528114156102dd575b50505050505060443560065560643560075560843560085560a4356001602160443560e05260c052604060c02001556044356019556001601855005b63313ce56781141561036657600a5460005260206000f35b634b8200938114156104205760043560a01c6129fb576004353314156129fb57600c5461014052610140516004356101605261014051610180526040366101a03760016101e0526101e0516101c0516101a051610180516101605160065801612449565b610140526000506101405160043561016052600b60043560e05260c052604060c0205461018052610140516101a0526101a051610180516101605160065801611d73565b61014052600050600160005260206000f35b63e77e74378114156104815760043560a01c6129fb5760243560a01c6129fb57602460043560e05260c052604060c02060243560e05260c052604060c020547001000000000000000000000000000000008082069050905060005260206000f35b6333fd6f748114156106815760043560a01c6129fb5760243560a01c6129fb576005602160243560e05260c052604060c020015461014052600c5461016052600b60043560e05260c052604060c020546101805260065460243514156104fe5760165461016052601560043560e05260c052604060c02054610180525b60006101605118156105da57426002602160243560e05260c052604060c02001548082111561052d578061052f565b815b905090506101a0526101a0516004602160243560e05260c052604060c02001548082106129fb57808203905090506101c05261014080516101c0516003602160243560e05260c052604060c02001548082028215828483041417156129fb5780905090509050670de0b6b3a76400008082028215828483041417156129fb5780905090509050610160518080156129fb5782049050905081818301106129fb57808201905090508152505b602360243560e05260c052604060c02060043560e05260c052604060c020546101a05261018051610140516101a0518082106129fb57808203905090508082028215828483041417156129fb5780905090509050670de0b6b3a7640000808204905090506101c052602460043560e05260c052604060c02060243560e05260c052604060c0205460801c6101c05181818301106129fb578082019050905060005260206000f35b63bdf981168114156106ab5760043560a01c6129fb5760043560223360e05260c052604060c02055005b63e6f1daf28114156106c7573361014052600061016052610730565b6384e9bd7e8114156106f35760006101605260043560a01c6129fb576020600461014037600050610730565b639faceb1b81141561072b5760043560a01c6129fb57602060046101403760243560a01c6129fb576020602461016037600050610730565b6107a4565b6000546129fb576001600055600061016051181561075457336101405114156129fb575b61014051610160516101405161018052600c546101a05260016101c052610160516101e0526101e0516101c0516101a051610180516006580161241f565b61016052610140526000506000600055005b6396c551758114156109a15760043560a01c6129fb57601760043560e05260c052604060c020546101405260206102c0604463da020a1861022052600435610240526020610200602463010ae757610180526004356101a05261019c6007545afa156129fb57601f3d11156129fb57600050610200516102605261023c6007545afa156129fb57601f3d11156129fb576000506102c05161016052600b60043560e05260c052604060c020546101805260206102c060246370a08231610240526004356102605261025c6007545afa156129fb57601f3d11156129fb576000506102c05161089357600161089d565b6101405161016051115b5b156129fb576101805160288082028215828483041417156129fb5780905090509050606480820490509050601560043560e05260c052604060c0205411156129fb57600c546101a0526101405161016051610180516101a0516004356101c0526101a0516101e052604036610200376001610240526102405161022051610200516101e0516101c05160065801612449565b6101a0526101805261016052610140526000506101405161016051610180516101a0516004356101c052600b60043560e05260c052604060c020546101e0526101a05161020052610200516101e0516101c05160065801611d73565b6101a052610180526101605261014052600050005b63b6b55f258114156109bd573361014052600061016052610a26565b636e553f658114156109e95760006101605260243560a01c6129fb576020602461014037600050610a26565b6383df6747811415610a215760243560a01c6129fb57602060246101403760443560011c6129fb576020604461016037600050610a26565b610d09565b6001546129fb576001600155600c54610180526004356101a0526028546101c05260006101c0511815610a86576004356101c0518082028215828483041417156129fb5780905090509050670de0b6b3a7640000808204905090506101a0525b60006101a0511815610c2157600060185414156101e0526101e05115610b11576101405161016051610180516101a0516101c0516101e051610140516102005261018051610220526101605161024052600061026052610260516102405161022051610200516006580161241f565b6101e0526101c0526101a0526101805261016052610140526000505b61018080516101a05181818301106129fb5780820190509050815250600b6101405160e05260c052604060c020546101a05181818301106129fb57808201905090506102005261020051600b6101405160e05260c052604060c0205561018051600c556101405161016051610180516101a0516101c0516101e0516102005161014051610220526102005161024052610180516102605261026051610240516102205160065801611d73565b610200526101e0526101c0526101a05261018052610160526101405260005060206102e060646323b872dd61022052336102405230610260526004356102805261023c60006009545af1156129fb57601f3d11156129fb576000506102e050610c87565b6101405161016051610180516101a0516101c051610140516101e052610180516102005260403661022037600161026052610260516102405161022051610200516101e05160065801612449565b6101c0526101a0526101805261016052610140526000505b610140517fe1fffcc4923d04b559f4d29a8bfc6cda04eb5b0d3c460751c2402c5c5cc9109c6101e0808080600435815250506020905090506101e0a26101405160007fddf252ad1be2c89b69c2b068fc378daa952ba7f163c4a11628f55a4df523b3ef6101e08080806101a051815250506020905090506101e0a36000600155005b632e1a7d4d811415610d2057600061014052610d4b565b6338d07436811415610d465760243560011c6129fb576020602461014037600050610d4b565b610ffc565b6002546129fb576001600255600c5461016052602854610180526004356101a0526000610180511815610db157600435670de0b6b3a76400008082028215828483041417156129fb5780905090509050610180518080156129fb578204905090506101a0525b60006004351815610f2557600060185414156101c0526101c05115610e30576101405161016051610180516101a0516101c051336101e052610160516102005261014051610220526000610240526102405161022051610200516101e0516006580161241f565b6101c0526101a0526101805261016052610140526000505b61016080516004358082106129fb5780820390509050815250600b3360e05260c052604060c020546004358082106129fb57808203905090506101e0526101e051600b3360e05260c052604060c0205561016051600c556101405161016051610180516101a0516101c0516101e05133610200526101e05161022052610160516102405261024051610220516102005160065801611d73565b6101e0526101c0526101a05261018052610160526101405260005060206102a0604463a9059cbb6102005233610220526101a0516102405261021c60006009545af1156129fb57601f3d11156129fb576000506102a050610f80565b6101405161016051610180516101a051336101c052610160516101e052604036610200376001610240526102405161022051610200516101e0516101c05160065801612449565b6101a0526101805261016052610140526000505b337f884edad9ce6fa2440d8a54cc123490eb96d2768479d49ff9c7366125a94243646101c08080806101a051815250506020905090506101c0a26000337fddf252ad1be2c89b69c2b068fc378daa952ba7f163c4a11628f55a4df523b3ef6101c0808080600435815250506020905090506101c0a36000600255005b63a9059cbb811415611059576003546129fb57600160035560043560a01c6129fb57336101405260043561016052602435610180526101805161016051610140516006580161267c565b6000506001600052600060035560206000f35b6323b872dd811415611149576004546129fb57600160045560043560a01c6129fb5760243560a01c6129fb57600d60043560e05260c052604060c0203360e05260c052604060c02054610140527fffffffffffffffffffffffffffffffffffffffffffffffffffffffffffffffff61014051181561110457610140516044358082106129fb5780820390509050600d60043560e05260c052604060c0203360e05260c052604060c020555b6101405160043561016052602435610180526044356101a0526101a05161018051610160516006580161267c565b610140526000506001600052600060045560206000f35b63095ea7b38114156111c65760043560a01c6129fb57602435600d3360e05260c052604060c02060043560e05260c052604060c02055600435337f8c5be1e5ebec7d5bd14f71427d1e84f3dd0314c0f7b2291e5b200ac8c7c3b92561014080808060243581525050602090509050610140a3600160005260206000f35b63395093518114156112795760043560a01c6129fb57600d3360e05260c052604060c02060043560e05260c052604060c0205460243581818301106129fb57808201905090506101405261014051600d3360e05260c052604060c02060043560e05260c052604060c02055600435337f8c5be1e5ebec7d5bd14f71427d1e84f3dd0314c0f7b2291e5b200ac8c7c3b9256101608080806101405181525050602090509050610160a3600160005260206000f35b63a457c2d781141561132a5760043560a01c6129fb57600d3360e05260c052604060c02060043560e05260c052604060c020546024358082106129fb57808203905090506101405261014051600d3360e05260c052604060c02060043560e05260c052604060c02055600435337f8c5be1e5ebec7d5bd14f71427d1e84f3dd0314c0f7b2291e5b200ac8c7c3b9256101608080806101405181525050602090509050610160a3600160005260206000f35b63e8de0d4d8114156113c85760043560a01c6129fb5760243560a01c6129fb576025543314156129fb576018546101405260086101405110156129fb576001602160043560e05260c052604060c02001546129fb576024356001602160043560e05260c052604060c020015560043560016101405160088110156129fb57026019015561014051600181818301106129fb5780820190509050601855005b63058a3a2481141561144e5760043560a01c6129fb5760243560a01c6129fb576001602160043560e05260c052604060c02001546101405261014051331415611412576001611418565b60255433145b5b156129fb5760006101405118156129fb57600060243518156129fb576024356001602160043560e05260c052604060c0200155005b6393f7aa6781141561173a576005546129fb57600160055560043560a01c6129fb576001602160043560e05260c052604060c02001543314156129fb57600061014052600c546101605260006101805260006101a0526101a0516101805161016051610140516006580161241f565b600050600060046101a0527f23b872dd000000000000000000000000000000000000000000000000000000006101c0526101a060048060208461020001018260208501600060045af15050805182019150503360208261020001015260208101905030602082610200010152602081019050602435602082610200010152602081019050806102005261020090508051602001806102c08284600060045af1156129fb57505060206103a06102c0516102e060006004355af1156129fb5760203d8082111561158c578061158e565b815b90509050610380526103808051602001806101408284600060045af1156129fb57505060006101405118156115f05761014080602001516000825180602090136129fb57809190126129fb57806020036101000a8204905090509050156129fb575b6002602160043560e05260c052604060c02001546101a0526101a05142106116395760243562093a80808204905090506003602160043560e05260c052604060c02001556116ba565b6101a051428082106129fb57808203905090506101c0526101c0516003602160043560e05260c052604060c02001548082028215828483041417156129fb57809050905090506101e0526024356101e05181818301106129fb578082019050905062093a80808204905090506003602160043560e05260c052604060c02001555b426004602160043560e05260c052604060c02001554262093a8081818301106129fb57808201905090506002602160043560e05260c052604060c02001556004357f656e648408f08a8f933b2d1375eb24c442eafd5537451a75561a264a569639226101c0808080602435815250506020905090506101c0a26000600555005b636b441a408114156117a55760043560a01c6129fb576025543314156129fb57600060043518156129fb576004356026557f2f56810a6bf40af059b96d3aea4db54081f378029a518390491093a7b67032e961014080808060043581525050602090509050610140a1005b63e5ea47b88114156118055760265461014052610140513314156129fb57610140516025557febee2d5739011062cb4f14113f3b36bf0ffe3da5c0568f64189d1012a11891056101608080806101405181525050602090509050610160a1005b63ddb986498114156118a35760043560a01c6129fb5760243560a01c6129fb576025543314156129fb5730600435141561186957306101405260243561016052604435610180526101805161016051610140516006580161267c565b6000506118a1565b60206101e0604463a9059cbb61014052604060246101603761015c60006004355af1156129fb57601f3d11156129fb576000506101e0505b005b638d2c4d848114156119015760043560a01c6129fb576025543314156129fb5760043560095560206101a0600463313ce5676101405261015c6004355afa156129fb57601f3d11156129fb576000506101a051600a55602435602855005b63313359b18114156119195760065460005260206000f35b63dfe050318114156119315760075460005260206000f35b63dca6e0bc8114156119495760085460005260206000f35b632dc7d74c8114156119615760095460005260206000f35b63178f318581141561197957600a5460005260206000f35b6370a082318114156119a95760043560a01c6129fb57600b60043560e05260c052604060c0205460005260206000f35b6318160ddd8114156119c157600c5460005260206000f35b63dd62ed3e811415611a095760043560a01c6129fb5760243560a01c6129fb57600d60043560e05260c052604060c02060243560e05260c052604060c0205460005260206000f35b6306fdde03811415611aa657600e80610180602082540161012060006003818352015b82610120516020021115611a3f57611a61565b61012051850154610120516020028501525b8151600101808352811415611a2c575b50505050505061018051806101a001818260206001820306601f82010390500336823750506020610160526040610180510160206001820306601f8201039050610160f35b6395d89b41811415611b4357601280610180602082540161012060006002818352015b82610120516020021115611adc57611afe565b61012051850154610120516020028501525b8151600101808352811415611ac9575b50505050505061018051806101a001818260206001820306601f82010390500336823750506020610160526040610180510160206001820306601f8201039050610160f35b6313ecb1ca811415611b735760043560a01c6129fb57601560043560e05260c052604060c0205460005260206000f35b6317e28089811415611b8b5760165460005260206000f35b639bd324f2811415611bbb5760043560a01c6129fb57601760043560e05260c052604060c0205460005260206000f35b63963c94b9811415611bd35760185460005260206000f35b6354c49fe9811415611bfb57600160043560088110156129fb57026019015460005260206000f35b6348e9c65e811415611c935760043560a01c6129fb57602160043560e05260c052604060c0206101408080808454815250506020810190508080600185015481525050602081019050808060028501548152505060208101905080806003850154815250506020810190508080600485015481525050602081019050808060058501548152505060c09050905060c05260c051610140f35b6301ddabf1811415611cc35760043560a01c6129fb57602260043560e05260c052604060c0205460005260206000f35b63f05cc058811415611d0b5760043560a01c6129fb5760243560a01c6129fb57602360043560e05260c052604060c02060243560e05260c052604060c0205460005260206000f35b63f851a440811415611d235760255460005260206000f35b6317f7182a811415611d3b5760265460005260206000f35b63158ef93e811415611d535760275460005260206000f35b63e90354ca811415611d6b5760285460005260206000f35b505b60006000fd5b6101a0526101405261016052610180526020610260602463bbf7408a6101e05261014051610200526101fc6008545afa156129fb57601f3d11156129fb57600050610260516101c052602061026060046318160ddd6102005261021c6007545afa156129fb57601f3d11156129fb57600050610260516101e0526101605160288082028215828483041417156129fb57809050905090506064808204905090506102005260006101e0511115611e8e576102008051610180516101c0518082028215828483041417156129fb57809050905090506101e0518080156129fb57820490509050603c8082028215828483041417156129fb578090509050905060648082049050905081818301106129fb57808201905090508152505b610160516102005180821115611ea45780611ea6565b815b905090506102005260156101405160e05260c052604060c02054610220526102005160156101405160e05260c052604060c020556016546102005181818301106129fb5780820190509050610220518082106129fb578082039050905061024052610240516016557f7ecd84343f76a23d2227290e0288da3251b045541698e575a5515af4f04197a361026080808061014051815250506020810190508080610160518152505060208101905080806101805181525050602081019050808061020051815250506020810190508080610240518152505060a090509050610260a16101a051565b610200526101405261016052610180526101a0526101c0526101e05261018051610220526101a05161024052600654610160511415611fe4576016546102205260156101405160e05260c052604060c02054610240525b600560216101605160e05260c052604060c02001546102605242600260216101605160e05260c052604060c0200154808211156120215780612023565b815b905090506102805261028051600460216101605160e05260c052604060c02001548082106129fb57808203905090506102a05260006102a051181561211b5761028051600460216101605160e05260c052604060c0200155600061022051181561211a5761026080516102a051600360216101605160e05260c052604060c02001548082028215828483041417156129fb5780905090509050670de0b6b3a76400008082028215828483041417156129fb5780905090509050610220518080156129fb5782049050905081818301106129fb578082019050905081525061026051600560216101605160e05260c052604060c02001555b5b60006101405118156123f45760236101605160e05260c052604060c0206101405160e05260c052604060c020546102c05260006102e052610260516102c05110156121cb576102605160236101605160e05260c052604060c0206101405160e05260c052604060c0205561024051610260516102c0518082106129fb57808203905090508082028215828483041417156129fb5780905090509050670de0b6b3a7640000808204905090506102e0525b60246101405160e05260c052604060c0206101605160e05260c052604060c02054610300526103005160801c6102e05181818301106129fb57808201905090506103205260006103205111156123f3576103005170010000000000000000000000000000000080820690509050610340526101c051156123a857600060046103c0527fa9059cbb000000000000000000000000000000000000000000000000000000006103e0526103c060048060208461042001018260208501600060045af15050805182019150506101e05160208261042001015260208101905061032051602082610420010152602081019050806104205261042090508051602001806104c08284600060045af1156129fb57505060206105806104c0516104e06000610160515af1156129fb5760203d808211156123065780612308565b815b90509050610560526105608051602001806103608284600060045af1156129fb575050600061036051181561236a5761036080602001516000825180602090136129fb57809190126129fb57806020036101000a8204905090509050156129fb575b610340516103205181818301106129fb578082019050905060246101405160e05260c052604060c0206101605160e05260c052604060c020556123f2565b60006102e05111156123f157610340516103205160801b81818301106129fb578082019050905060246101405160e05260c052604060c0206101605160e05260c052604060c020555b5b5b5b600654610160511415612415574260176101405160e05260c052604060c020555b6102005156612441575b6101e05260006101c0526101405261016052610180526101a05260005061246a565b600015612469575b6101e0526101405261016052610180526101a0526101c05260005061246a565b5b6101a0516102005260006102205260006101405118156124de57600b6101405160e05260c052604060c020546102205261018051156124ad576101a051156124b0565b60005b156124dd5760226101405160e05260c052604060c0205461020052610200516124dc5761014051610200525b5b5b6101c0511561257d576101405161016051610180516101a0516101c0516101e05161020051610220516101405161024052600654610260526101605161028052610220516102a05260006102c052610200516102e0526102e0516102c0516102a05161028051610260516102405160065801611f8d565b61022052610200526101e0526101c0526101a052610180526101605261014052600050612676565b6018546102405261026060006008818352015b610240516102605114156125a357612673565b60016102605160088110156129fb570260190154610280526101406102a0525b6102a0515160206102a051016102a0526102a06102a05110156125e5576125c3565b610140516102c052610280516102e0526101605161030052610220516103205261018051610340526102005161036052610360516103405161032051610300516102e0516102c05160065801611f8d565b6102806102a0525b6102a0515260206102a051036102a0526101406102a0511061265f5761263e565b6000505b8151600101808352811415612590575b50505b6101e051565b6101a052610140526101605261018052600c546101c05260006101805118156128e957600060185414156101e0526101e0511561271c576101405161016051610180516101a0516101c0516101e05161014051610200526101c05161022052600061024052600061026052610260516102405161022051610200516006580161241f565b6101e0526101c0526101a0526101805261016052610140526000505b600b6101405160e05260c052604060c02054610180518082106129fb57808203905090506102005261020051600b6101405160e05260c052604060c020556101405161016051610180516101a0516101c0516101e05161020051610140516102205261020051610240526101c0516102605261026051610240516102205160065801611d73565b610200526101e0526101c0526101a0526101805261016052610140526000506101e0511561283c576101405161016051610180516101a0516101c0516101e0516102005161016051610220526101c05161024052600061026052600061028052610280516102605161024051610220516006580161241f565b610200526101e0526101c0526101a0526101805261016052610140526000505b600b6101605160e05260c052604060c020546101805181818301106129fb57808201905090506102005261020051600b6101605160e05260c052604060c020556101405161016051610180516101a0516101c0516101e05161020051610160516102205261020051610240526101c0516102605261026051610240516102205160065801611d73565b610200526101e0526101c0526101a0526101805261016052610140526000506129b4565b6101405161016051610180516101a0516101c051610140516101e0526101c0516102005260403661022037600161026052610260516102405161022051610200516101e05160065801612449565b6101c0526101a0526101805261016052610140526000506101405161016051610180516101a0516101c051610160516101e0526101c0516102005260403661022037600161026052610260516102405161022051610200516101e05160065801612449565b6101c0526101a0526101805261016052610140526000505b61016051610140517fddf252ad1be2c89b69c2b068fc378daa952ba7f163c4a11628f55a4df523b3ef6101e080808061018051815250506020905090506101e0a36101a051565b600080fd5b610010612a1003610010600039610010612a10036000f35b600080fd"
}