{
  "address": "0x41180273e5D6f0fbf812D9D675eD7956F0d39F8B",
  "abi": [
    {
      "inputs": [],
      "stateMutability": "nonpayable",
      "type": "constructor"
    },
    {
      "inputs": [
        {
          "internalType": "address",
          "name": "to",
          "type": "address"
        },
        {
          "internalType": "uint256",
          "name": "value",
          "type": "uint256"
        },
        {
          "internalType": "bytes",
          "name": "data",
          "type": "bytes"
        }
      ],
      "name": "execute",
      "outputs": [
        {
          "internalType": "bool",
          "name": "",
          "type": "bool"
        },
        {
          "internalType": "bytes",
          "name": "",
          "type": "bytes"
        }
      ],
      "stateMutability": "nonpayable",
      "type": "function"
    },
    {
      "inputs": [
        {
          "internalType": "uint8",
          "name": "gaugeType",
          "type": "uint8"
        },
        {
          "internalType": "uint256",
          "name": "amountAgEURMin",
          "type": "uint256"
        },
        {
          "internalType": "uint256",
          "name": "amountTokenMin",
          "type": "uint256"
        }
      ],
      "name": "migratePool",
      "outputs": [
        {
          "internalType": "address",
          "name": "poolCreated",
          "type": "address"
        }
      ],
      "stateMutability": "nonpayable",
      "type": "function"
    },
    {
      "inputs": [],
      "name": "owner",
      "outputs": [
        {
          "internalType": "address",
          "name": "",
          "type": "address"
        }
      ],
      "stateMutability": "view",
      "type": "function"
    },
    {
      "inputs": [
        {
          "internalType": "address",
          "name": "owner_",
          "type": "address"
        }
      ],
      "name": "setOwner",
      "outputs": [],
      "stateMutability": "nonpayable",
      "type": "function"
    }
  ],
  "transactionHash": "0xea30af8c6e44a712ec197939112bd62ed73e5f00d7a2a2c3a1cb57c957fb7356",
  "args": [],
  "solcInputHash": "0108559c0b7bb3c74200d8cde4ed5c88",
  "bytecode": "0x608060405234801561001057600080fd5b50600080546001600160a01b03191633179055611d22806100326000396000f3fe608060405234801561001057600080fd5b506004361061004c5760003560e01c806313af4035146100515780638da5cb5b14610066578063b61d27f61461008f578063e7bdc459146100b0575b600080fd5b61006461005f366004611818565b6100c3565b005b600054610079906001600160a01b031681565b6040516100869190611aa3565b60405180910390f35b6100a261009d366004611852565b610152565b604051610086929190611b2f565b6100796100be366004611a16565b6101f0565b6000546001600160a01b031633146100f65760405162461bcd60e51b81526004016100ed90611b5d565b60405180910390fd5b6001600160a01b0381166101305760405162461bcd60e51b81526020600482015260016024820152600360fc1b60448201526064016100ed565b600080546001600160a01b0319166001600160a01b0392909216919091179055565b600080546060906001600160a01b031633146101805760405162461bcd60e51b81526004016100ed90611b5d565b600080876001600160a01b031687878760405161019e929190611a77565b60006040518083038185875af1925050503d80600081146101db576040519150601f19603f3d011682016040523d82523d6000602084013e6101e0565b606091505b5090999098509650505050505050565b600080546001600160a01b0316331461021b5760405162461bcd60e51b81526004016100ed90611b5d565b6000806000808760ff16600114156103065773eb7547a8a734b6fddbb8ce0c314a9e6485100a3c9350732bd9f7974bc0e4cb19b8813f8be6034f3e772add925073a0b86991c6218b36c1d19d4a2e9eb0ce3606eb489050737ed3f364668cd2b9449a8660974a26a092c648496001600160a01b0316633850c7bd6040518163ffffffff1660e01b815260040160e06040518083038186803b1580156102bf57600080fd5b505afa1580156102d3573d6000803e3d6000fd5b505050506040513d601f19601f820116820180604052508101906102f791906118f5565b509496506103da945050505050565b733785ce82be62a342052b9e5431e9d3a839cfb58193507326c2251801d2cfb5461751c984dc3eaa358bdf0f925073c02aaa39b223fe8d0a0e5c4f27ead9083c756cc29050739496d107a4b90c7d18c703e8685167f90ac273b06001600160a01b0316633850c7bd6040518163ffffffff1660e01b815260040160e06040518083038186803b15801561039857600080fd5b505afa1580156103ac573d6000803e3d6000fd5b505050506040513d601f19601f820116820180604052508101906103d091906118f5565b5094965050505050505b6104046001600160a01b03821673513e0a261af2d33b46f98b81fed547608fa2a03d60001961132d565b61042e6001600160a01b03841673513e0a261af2d33b46f98b81fed547608fa2a03d60001961132d565b604051636eb1769f60e11b81526104ed9073513e0a261af2d33b46f98b81fed547608fa2a03d90600080516020611ccd8339815191529063dd62ed3e9061047b9030908590600401611ab7565b60206040518083038186803b15801561049357600080fd5b505afa1580156104a7573d6000803e3d6000fd5b505050506040513d601f19601f820116820180604052508101906104cb9190611989565b6104d790600019611c4c565b600080516020611ccd833981519152919061147b565b6040516370a0823160e01b81526000906001600160a01b038516906370a082319061051c908890600401611aa3565b60206040518083038186803b15801561053457600080fd5b505afa158015610548573d6000803e3d6000fd5b505050506040513d601f19601f8201168201806040525081019061056c9190611989565b9050846001600160a01b031663e5ea47b86040518163ffffffff1660e01b8152600401600060405180830381600087803b1580156105a957600080fd5b505af11580156105bd573d6000803e3d6000fd5b505060405163ddb9864960e01b81526001600160a01b038781166004830152306024830152604482018590528816925063ddb986499150606401600060405180830381600087803b15801561061157600080fd5b505af1158015610625573d6000803e3d6000fd5b5050604051632cfc215960e11b81526001600160a01b038716600482015260248101849052604481018b9052606481018a90523060848201526000925082915073513e0a261af2d33b46f98b81fed547608fa2a03d906359f842b29060a401606060405180830381600087803b15801561069e57600080fd5b505af11580156106b2573d6000803e3d6000fd5b505050506040513d601f19601f820116820180604052508101906106d691906119a2565b509092509050600160ff8c161415610872576040516309f56ab160e11b8152600080516020611ccd833981519152600482015273a0b86991c6218b36c1d19d4a2e9eb0ce3606eb4860248201526064604482018190526001600160a01b0387169082015273c36442b4a4522e871399cd717abdd847ab11fe88906313ead56290608401602060405180830381600087803b15801561077357600080fd5b505af1158015610787573d6000803e3d6000fd5b505050506040513d601f19601f820116820180604052508101906107ab9190611835565b506040516320f182b160e21b815273ea1aff9dbffd1580f6b81a3ad3589e66652db7d9906383c60ac49061081990600080516020611ccd8339815191529073a0b86991c6218b36c1d19d4a2e9eb0ce3606eb48906064906000906204375f199062042c3d1990600401611ad1565b602060405180830381600087803b15801561083357600080fd5b505af1158015610847573d6000803e3d6000fd5b505050506040513d601f19601f8201168201806040525081019061086b9190611835565b9750610f33565b6040516320f182b160e21b815273ea1aff9dbffd1580f6b81a3ad3589e66652db7d9906383c60ac4906108e090600080516020611ccd8339815191529073c02aaa39b223fe8d0a0e5c4f27ead9083c756cc2906101f49060009062017777199062010d871990600401611ad1565b602060405180830381600087803b1580156108fa57600080fd5b505af115801561090e573d6000803e3d6000fd5b505050506040513d601f19601f820116820180604052508101906109329190611835565b97506000738db1b906d47dfc1d84a87fc49bd0522e285b98b96001600160a01b0316633850c7bd6040518163ffffffff1660e01b815260040160e06040518083038186803b15801561098357600080fd5b505afa158015610997573d6000803e3d6000fd5b505050506040513d601f19601f820116820180604052508101906109bb91906118f5565b5050505050506001600160a01b03169050600060c0876001600160a01b0316886001600160a01b03166109ee9190611c2d565b610a0090670de0b6b3a7640000611c2d565b901c905060c0610a108380611c2d565b610a2290670de0b6b3a7640000611c2d565b6040516370a0823160e01b8152911c9250600090600080516020611ccd833981519152906370a0823190610a6e90738db1b906d47dfc1d84a87fc49bd0522e285b98b990600401611aa3565b60206040518083038186803b158015610a8657600080fd5b505afa158015610a9a573d6000803e3d6000fd5b505050506040513d601f19601f82011682018060405250810190610abe9190611989565b6040516370a0823160e01b815290915060009073c02aaa39b223fe8d0a0e5c4f27ead9083c756cc2906370a0823190610b0f90738db1b906d47dfc1d84a87fc49bd0522e285b98b990600401611aa3565b60206040518083038186803b158015610b2757600080fd5b505afa158015610b3b573d6000803e3d6000fd5b505050506040513d601f19601f82011682018060405250810190610b5f9190611989565b905083831115610ce0576000610b8884610b798486611c2d565b610b839190611c0b565b61152d565b610b9690633b9aca00611c2d565b610ba09084611c4c565b9050610bd773c02aaa39b223fe8d0a0e5c4f27ead9083c756cc273e592427a0aece92de3edee1f18e0157c0586156460001961132d565b604080516101008101825273c02aaa39b223fe8d0a0e5c4f27ead9083c756cc28152600080516020611ccd83398151915260208201526101f48183015230606082015242608082015260a0810183905260001960c0820152600060e082018190529151631b67c43360e31b815273e592427a0aece92de3edee1f18e0157c058615649163db3e219891610c6d9190600401611b83565b602060405180830381600087803b158015610c8757600080fd5b505af1158015610c9b573d6000803e3d6000fd5b505050506040513d601f19601f82011682018060405250810190610cbf9190611989565b9050610ccb8289611bf3565b9750610cd78188611c4c565b96505050610e3c565b600082610cf185610b798584611c2d565b610cff90633b9aca00611c2d565b610d099190611c4c565b9050610d38600080516020611ccd83398151915273e592427a0aece92de3edee1f18e0157c058615648361132d565b6040805161010081018252600080516020611ccd833981519152815273c02aaa39b223fe8d0a0e5c4f27ead9083c756cc260208201526101f48183015230606082015242608082015260a08101839052600060c0820181905260e08201819052915163414bf38960e01b815273e592427a0aece92de3edee1f18e0157c058615649163414bf38991610dcd9190600401611b83565b602060405180830381600087803b158015610de757600080fd5b505af1158015610dfb573d6000803e3d6000fd5b505050506040513d601f19601f82011682018060405250810190610e1f9190611989565b9050610e2b8289611c4c565b9750610e378188611bf3565b965050505b738db1b906d47dfc1d84a87fc49bd0522e285b98b96001600160a01b0316633850c7bd6040518163ffffffff1660e01b815260040160e06040518083038186803b158015610e8957600080fd5b505afa158015610e9d573d6000803e3d6000fd5b505050506040513d601f19601f82011682018060405250810190610ec191906118f5565b50506001600160a01b039485169850505050508916841115610f0857670de0b6b3a7640000610ef96001600160a01b038b1686611c4c565b10610f0357600080fd5b610f2e565b670de0b6b3a7640000610f24856001600160a01b038c16611c4c565b10610f2e57600080fd5b505050505b60405163f2fde38b60e01b81526001600160a01b0389169063f2fde38b90610f7390730c2553e4b9dfa9f83b1a6d3eab96c4baab42d43090600401611aa3565b600060405180830381600087803b158015610f8d57600080fd5b505af1158015610fa1573d6000803e3d6000fd5b505060405163fb9f478960e01b81526001600160a01b038b811660048301526024820186905260448201859052606482018e9052608482018d90528a1660a482015273513e0a261af2d33b46f98b81fed547608fa2a03d925063fb9f4789915060c401606060405180830381600087803b15801561101e57600080fd5b505af1158015611032573d6000803e3d6000fd5b505050506040513d601f19601f8201168201806040525081019061105691906119e8565b50506040516370a0823160e01b8152600091506001600160a01b038a16906370a0823190611088908b90600401611aa3565b60206040518083038186803b1580156110a057600080fd5b505afa1580156110b4573d6000803e3d6000fd5b505050506040513d601f19601f820116820180604052508101906110d89190611989565b90506001600160a01b038816638d2c4d848a836110fd88670de0b6b3a7640000611c2d565b6111079190611c0b565b6040518363ffffffff1660e01b8152600401611124929190611b16565b600060405180830381600087803b15801561113e57600080fd5b505af1158015611152573d6000803e3d6000fd5b50506040516301ad106960e61b81526001600160a01b038b169250636b441a4091506111969073dc4e6dfe07efca50a197df15d9200883ef4eb1c890600401611aa3565b600060405180830381600087803b1580156111b057600080fd5b505af11580156111c4573d6000803e3d6000fd5b5050505061126d73dc4e6dfe07efca50a197df15d9200883ef4eb1c8866001600160a01b03166370a08231306040518263ffffffff1660e01b815260040161120c9190611aa3565b60206040518083038186803b15801561122457600080fd5b505afa158015611238573d6000803e3d6000fd5b505050506040513d601f19601f8201168201806040525081019061125c9190611989565b6001600160a01b0388169190611586565b6040516370a0823160e01b815261131e9073dc4e6dfe07efca50a197df15d9200883ef4eb1c890600080516020611ccd833981519152906370a08231906112b8903090600401611aa3565b60206040518083038186803b1580156112d057600080fd5b505afa1580156112e4573d6000803e3d6000fd5b505050506040513d601f19601f820116820180604052508101906113089190611989565b600080516020611ccd8339815191529190611586565b50505050505050509392505050565b8015806113b55750604051636eb1769f60e11b81526001600160a01b0384169063dd62ed3e906113639030908690600401611ab7565b60206040518083038186803b15801561137b57600080fd5b505afa15801561138f573d6000803e3d6000fd5b505050506040513d601f19601f820116820180604052508101906113b39190611989565b155b6114205760405162461bcd60e51b815260206004820152603660248201527f5361666545524332303a20617070726f76652066726f6d206e6f6e2d7a65726f60448201527520746f206e6f6e2d7a65726f20616c6c6f77616e636560501b60648201526084016100ed565b6114768363095ea7b360e01b848460405160240161143f929190611b16565b60408051601f198184030181529190526020810180516001600160e01b03166001600160e01b0319909316929092179091526115a5565b505050565b600081846001600160a01b031663dd62ed3e30866040518363ffffffff1660e01b81526004016114ac929190611ab7565b60206040518083038186803b1580156114c457600080fd5b505afa1580156114d8573d6000803e3d6000fd5b505050506040513d601f19601f820116820180604052508101906114fc9190611989565b6115069190611bf3565b90506115278463095ea7b360e01b858460405160240161143f929190611b16565b50505050565b600080600261153d846001611bf3565b6115479190611c0b565b90508291505b81811015611580579050806002816115658186611c0b565b61156f9190611bf3565b6115799190611c0b565b905061154d565b50919050565b6114768363a9059cbb60e01b848460405160240161143f929190611b16565b60006115fa826040518060400160405280602081526020017f5361666545524332303a206c6f772d6c6576656c2063616c6c206661696c6564815250856001600160a01b03166116779092919063ffffffff16565b805190915015611476578080602001905181019061161891906118da565b6114765760405162461bcd60e51b815260206004820152602a60248201527f5361666545524332303a204552433230206f7065726174696f6e20646964206e6044820152691bdd081cdd58d8d9595960b21b60648201526084016100ed565b60606116868484600085611690565b90505b9392505050565b6060824710156116f15760405162461bcd60e51b815260206004820152602660248201527f416464726573733a20696e73756666696369656e742062616c616e636520666f6044820152651c8818d85b1b60d21b60648201526084016100ed565b843b61173f5760405162461bcd60e51b815260206004820152601d60248201527f416464726573733a2063616c6c20746f206e6f6e2d636f6e747261637400000060448201526064016100ed565b600080866001600160a01b0316858760405161175b9190611a87565b60006040518083038185875af1925050503d8060008114611798576040519150601f19603f3d011682016040523d82523d6000602084013e61179d565b606091505b50915091506117ad8282866117b8565b979650505050505050565b606083156117c7575081611689565b8251156117d75782518084602001fd5b8160405162461bcd60e51b81526004016100ed9190611b4a565b8051801515811461180157600080fd5b919050565b805161ffff8116811461180157600080fd5b60006020828403121561182a57600080fd5b813561168981611ca5565b60006020828403121561184757600080fd5b815161168981611ca5565b6000806000806060858703121561186857600080fd5b843561187381611ca5565b93506020850135925060408501356001600160401b038082111561189657600080fd5b818701915087601f8301126118aa57600080fd5b8135818111156118b957600080fd5b8860208285010111156118cb57600080fd5b95989497505060200194505050565b6000602082840312156118ec57600080fd5b611689826117f1565b600080600080600080600060e0888a03121561191057600080fd5b875161191b81611ca5565b8097505060208801518060020b811461193357600080fd5b955061194160408901611806565b945061194f60608901611806565b935061195d60808901611806565b925060a088015161196d81611cbd565b915061197b60c089016117f1565b905092959891949750929550565b60006020828403121561199b57600080fd5b5051919050565b6000806000606084860312156119b757600080fd5b83516020850151604086015191945092506001600160801b03811681146119dd57600080fd5b809150509250925092565b6000806000606084860312156119fd57600080fd5b8351925060208401519150604084015190509250925092565b600080600060608486031215611a2b57600080fd5b8335611a3681611cbd565b95602085013595506040909401359392505050565b60008151808452611a63816020860160208601611c63565b601f01601f19169290920160200192915050565b8183823760009101908152919050565b60008251611a99818460208701611c63565b9190910192915050565b6001600160a01b0391909116815260200190565b6001600160a01b0392831681529116602082015260400190565b6001600160a01b03968716815294909516602085015262ffffff92909216604084015261ffff166060830152600290810b60808301529190910b60a082015260c00190565b6001600160a01b03929092168252602082015260400190565b82151581526040602082015260006116866040830184611a4b565b6020815260006116896020830184611a4b565b6020808252600c908201526b3bb937b7339031b0b63632b960a11b604082015260600190565b6101008101611bed828480516001600160a01b03908116835260208083015182169084015260408083015162ffffff16908401526060808301518216908401526080808301519084015260a0828101519084015260c0808301519084015260e09182015116910152565b92915050565b60008219821115611c0657611c06611c8f565b500190565b600082611c2857634e487b7160e01b600052601260045260246000fd5b500490565b6000816000190483118215151615611c4757611c47611c8f565b500290565b600082821015611c5e57611c5e611c8f565b500390565b60005b83811015611c7e578181015183820152602001611c66565b838111156115275750506000910152565b634e487b7160e01b600052601160045260246000fd5b6001600160a01b0381168114611cba57600080fd5b50565b60ff81168114611cba57600080fdfe0000000000000000000000001a7e4e63778b4f12a199c062f3efdd288afcbce8a2646970667358221220d5bbc53dbe974f872263443e87bfd3e6b5b091f40cd13d4cce951c9651d541a964736f6c63430008070033",
  "devdoc": {
    "author": "Angle Core Team",
    "kind": "dev",
    "methods": {
      "execute(address,uint256,bytes)": {
        "params": {
          "data": "Call function data",
          "to": "Address to sent the value to",
          "value": "Value to be sent"
        }
      },
      "migratePool(uint8,uint256,uint256)": {
        "returns": {
          "poolCreated": "The address of the pool created for the swap"
        }
      },
      "setOwner(address)": {
        "params": {
          "owner_": "Address of the new owner"
        }
      }
    },
    "title": "UniMigrator",
    "version": 1
  },
  "userdoc": {
    "kind": "user",
    "methods": {
      "constructor": {
        "notice": "Constructs a new CompSaver token"
      },
      "execute(address,uint256,bytes)": {
        "notice": "Executes a function"
      },
      "setOwner(address)": {
        "notice": "Changes the minter address"
      }
    },
    "notice": "Swaps G-UNI liquidity",
    "version": 1
  },
  "storageLayout": {
    "storage": [
      {
        "astId": 1515,
        "contract": "contracts/migrator/UniMigrator.sol:UniMigrator",
        "label": "owner",
        "offset": 0,
        "slot": "0",
        "type": "t_address"
      }
    ],
    "types": {
      "t_address": {
        "encoding": "inplace",
        "label": "address",
        "numberOfBytes": "20"
      }
    }
  }
}